{
  "_format": "hh3-artifact-1",
  "contractName": "CrossBorderAML",
  "sourceName": "contracts/CrossBorderAML.sol",
  "abi": [
    {
      "inputs": [],
      "stateMutability": "nonpayable",
      "type": "constructor"
    },
    {
      "anonymous": false,
      "inputs": [
        {
          "indexed": true,
          "internalType": "address",
          "name": "suspiciousAddress",
          "type": "address"
        }
      ],
      "name": "AddressFlagged",
      "type": "event"
    },
    {
      "anonymous": false,
      "inputs": [
        {
          "indexed": true,
          "internalType": "address",
          "name": "from",
          "type": "address"
        },
        {
          "indexed": true,
          "internalType": "address",
          "name": "to",
          "type": "address"
        },
        {
          "indexed": false,
          "internalType": "uint256",
          "name": "amount",
          "type": "uint256"
        }
      ],
      "name": "TransferVerified",
      "type": "event"
    },
    {
      "inputs": [],
      "name": "bankAdmin",
      "outputs": [
        {
          "internalType": "address",
          "name": "",
          "type": "address"
        }
      ],
      "stateMutability": "view",
      "type": "function"
    },
    {
      "inputs": [
        {
          "internalType": "address",
          "name": "",
          "type": "address"
        }
      ],
      "name": "dailyVolume",
      "outputs": [
        {
          "internalType": "uint256",
          "name": "",
          "type": "uint256"
        }
      ],
      "stateMutability": "view",
      "type": "function"
    },
    {
      "inputs": [
        {
          "internalType": "address",
          "name": "_to",
          "type": "address"
        },
        {
          "internalType": "uint256",
          "name": "_amount",
          "type": "uint256"
        }
      ],
      "name": "initiateTransfer",
      "outputs": [],
      "stateMutability": "nonpayable",
      "type": "function"
    },
    {
      "inputs": [
        {
          "internalType": "address",
          "name": "",
          "type": "address"
        }
      ],
      "name": "isWhitelisted",
      "outputs": [
        {
          "internalType": "bool",
          "name": "",
          "type": "bool"
        }
      ],
      "stateMutability": "view",
      "type": "function"
    },
    {
      "inputs": [
        {
          "internalType": "address",
          "name": "_user",
          "type": "address"
        },
        {
          "internalType": "bool",
          "name": "_status",
          "type": "bool"
        }
      ],
      "name": "updateComplianceStatus",
      "outputs": [],
      "stateMutability": "nonpayable",
      "type": "function"
    }
  ],
  "bytecode": "0x6080604052348015600e575f5ffd5b505f80546001600160a01b031916331790556104168061002d5f395ff3fe608060405234801561000f575f5ffd5b5060043610610055575f3560e01c80631aa9a27f146100595780633af32abf14610088578063a0faa138146100ba578063b504cd1e146100cf578063e5b0ea7f146100e2575b5f5ffd5b5f5461006b906001600160a01b031681565b6040516001600160a01b0390911681526020015b60405180910390f35b6100aa61009636600461033a565b60016020525f908152604090205460ff1681565b604051901515815260200161007f565b6100cd6100c836600461035a565b61010f565b005b6100cd6100dd366004610393565b610188565b6101016100f036600461033a565b60026020525f908152604090205481565b60405190815260200161007f565b5f546001600160a01b0316331461015e5760405162461bcd60e51b815260206004820152600e60248201526d139bdd08185d5d1a1bdc9a5e995960921b60448201526064015b60405180910390fd5b6001600160a01b03919091165f908152600160205260409020805460ff1916911515919091179055565b335f9081526001602052604090205460ff166101e65760405162461bcd60e51b815260206004820152601760248201527f53656e646572206661696c656420414d4c20636865636b0000000000000000006044820152606401610155565b6001600160a01b0382165f9081526001602052604090205460ff1661024d5760405162461bcd60e51b815260206004820152601a60248201527f526563697069656e74206661696c656420414d4c20636865636b0000000000006044820152606401610155565b335f9081526002602052604090205469021e19e0c9bab2400000906102739083906103bb565b11156102b85760405162461bcd60e51b815260206004820152601460248201527311185a5b1e481b1a5b5a5d08195e18d95959195960621b6044820152606401610155565b335f90815260026020526040812080548392906102d69084906103bb565b90915550506040518181526001600160a01b0383169033907f27242587ad33b456e6af2e3e30005c8c4a4bf05843130b087d3d235b834ea70e9060200160405180910390a35050565b80356001600160a01b0381168114610335575f5ffd5b919050565b5f6020828403121561034a575f5ffd5b6103538261031f565b9392505050565b5f5f6040838503121561036b575f5ffd5b6103748361031f565b915060208301358015158114610388575f5ffd5b809150509250929050565b5f5f604083850312156103a4575f5ffd5b6103ad8361031f565b946020939093013593505050565b808201808211156103da57634e487b7160e01b5f52601160045260245ffd5b9291505056fea264697066735822122056dca487041dabeef3bcf417edb57f6313a8bf3c4fe86eaa2740c7ec288d157e64736f6c634300081c0033",
  "linkReferences": {},
  "deployedLinkReferences": {},
  "immutableReferences": {},
  "inputSourceName": "project/contracts/CrossBorderAML.sol",
  "buildInfoId": "solc-0_8_28-bc73dca2e5ced4dd188aa488a3bec98ea8176cec"
}